:10000000007C00204506000035060000390600008F
:1000100000000000000000000000000000000000E0
:100020000000000000000000000000003D0600008D
:10003000000000000000000041060000D1070000A1
:1000400010B5064C2378002B07D1054B002B02D0AE
:10005000044800E000BF0123237010BD58000020B9
:1000600000000000481C0000044B10B5002B03D01A
:100070000349044800E000BF10BDC0460000000076
:100080005C000020481C00001C4B1B78002B0BD18F
:100090001B4B1B781B4A11785B18DBB213701A4A92
:1000A0009C2380214900D150144A13780133DBB2DC
:1000B0001370144B1B78DBB2F02B04D8114B1B7858
:1000C000DBB2092B0BD80E4A13785BB25B425BB2F2
:1000D000137013780B4A11785B18DBB21370074B5F
:1000E0001B78084A1278DBB2934200D07047064A68
:1000F0009C2380214900D150F8E7C04674000020BD
:1001000000000020010000200044004110B5C36938
:100110009B07FCD403680224A3430360C369DB0785
:10012000FCD403680124234303600368DB07FCD489
:10013000C369DB07FCD4C3699B07F9D4084B1A4396
:100140000260C3695B07FCD4C0239B0243608181CA
:10015000C3699B07FCD4036802221343036010BDEC
:1001600004000040037EDB07FCD589B2018570479F
:10017000037E5B07FCD5438BDB0705D4438B9B07D2
:1001800002D4438B5B0702D5024B01221A70008D0B
:10019000C0B2704775000020F8B5040003689A8B60
:1001A000120707D40822FF329B5CDB062FD500F034
:1001B00053FB2CE008229A8378329A7280214900FE
:1001C0001120585440260621FF315E5482256D00CF
:1001D0005A55104A5168104F3940C02080050143DC
:1001E000516051693940084350610C4911600C4914
:1001F000116151680B480840802189020143516018
:100200005168890B890351605E5500232371207961
:10021000F8BDC04698010020FFFFFF8F9800002026
:1002200018010020FF3F00F00160002303714371BB
:10023000034B83600B78022213430B707047C04658
:100240009901000010B5394AD36920210B43D361CD
:10025000374B38315A5C012422435A543C22985C73
:10026000493988439854985C06210843985459208A
:10027000195C21431954995C4A3801409954995C9E
:100280006020014399542B4B2B4A5A801A00537813
:100290005BB2002BFBDB294A137801210B4313705F
:1002A0009378DB07FCD4264B1B689B03DB0E1F2BCC
:1002B00036D022490A8D9B012248024013430B8508
:1002C0001F4B1B685B02DB0E1F2B2BD01B490A8DBB
:1002D0001F20824313430B85194B1A689201520F5A
:1002E000072A21D0154B198D1203174801400A43E4
:1002F0001A8519787F220A401A701A7804210A4355
:100300001A70124858621A890C218A431A811A8974
:100310000B398A431A818022002101F00EFB10BDA7
:100320001A3BC6E7023BD1E7043ADBE70004004092
:1003300000440041000C0040064000000050004115
:10034000246080003FF8FFFFFF8FFFFF980100202F
:10035000F0B5C64600B5050016001C0098465A01C7
:10036000214B9B1810335B685B005B0F033301224A
:100370009A40B2422BD862011B4B9B1858698022CD
:10038000120602435A616201174B9B181A00196149
:100390005B69B104890C9B0B9B030B43536153694D
:1003A00012490B405361083464012C190223E37194
:1003B0006279823B1343637140460830400128183C
:1003C000C3799B07FCD5300004BC9046F0BD2700E4
:1003D0007B1E9F41BF01064BFF183200380001F021
:1003E000A3FA3900CFE7C04698010020FF3F00F094
:1003F0001801002070B505000E0014001B4B1B787F
:10040000002B14D11A4B1B4A1A645A6C920B92039C
:100410005A645A6C18490A405A64A2225200835CFA
:1004200040210B438354114B443AFF3A1A7048233E
:10043000FF33EB5C0020DB0716D50D4B5B6C9B0498
:100440009B0CA34203D20A4B5C6CA404A40C2200B4
:100450000849300001F068FA4823FF330122EA54CA
:10046000024B00221A70200070BDC04676000020AA
:1004700098010020D8000020FF3F00F0002906D19D
:100480000622FF32835C10210B43835470470622FF
:10049000FF32835C20210B438354F7E70A4A5369F8
:1004A0009B0B9B0353610823FF330222C254062295
:1004B000FF32815C883BFF3B0B4383540822FF32B1
:1004C000835C9B07FCD570479801002080235B422A
:1004D0001943C9B28172704770B5A0235B00032233
:1004E000C254134B5A6C134C2240C02189050A4355
:1004F0005A6440254622FF3285540F4A1A649022DE
:100500005200302686545A6B224011435963802191
:10051000922252008154094A1A63B0225200855433
:100520005A6F22405A67B2235B00C15470BDC04667
:1005300098010020FFFFFF8FD80000205801002005
:10054000024A53785BB2002BFBDB7047000C004083
:1005500002491022CB681A42FCD0704700080040C4
:1005600070B5284A53681E218B43022423435360ED
:10057000254DAC60FFF7E4FF244B6B60FFF7E0FF15
:10058000234B9C84FFF7E4FF224B1B689B0E3F2B01
:1005900035D09B02204A13431D4C204AE262A362DD
:1005A0000025A584FFF7D4FF1D4BA384FFF7D0FFE0
:1005B000A38C02263343A384FFF7CAFF124C63883F
:1005C0003F2293433343638063888022D2011343E5
:1005D0006380A560FFF7B4FF124B6360FFF7B0FFC5
:1005E000114A124B53601248036A1B021B0AC021B6
:1005F00009060B43036295600723136070BD203B1F
:10060000C7E7C04600400041000C00400600010062
:100610000008004024608000FF01000080BB0A1C2D
:10062000240500000007030010E000E0E7030000DD
:1006300000ED00E00EBEFEE70DBEFEE705BEFEE7E4
:1006400002BEFEE710B5164A164B9A4215D0164A5E
:10065000134B9A4211D01A00124B9A420DD2033317
:10066000124A9B1A9B0801339B0000220C480E493A
:100670008C58845004329A42FAD10D4A0D4B9A425A
:100680000AD009D2111D03335B1A032083435B1880
:10069000002102C29A42FCD100F00EF8FEE7C046EB
:1006A00000000020580000204C1C00000400002026
:1006B00058000020A8030020F8B500AF384B1B6895
:1006C000013323D0374B384A1360043BFF221342D7
:1006D0001CD13649C73A8A5CD2070FD5344A00216B
:1006E00011602F4A126882F30888FF229343314A2F
:1006F00093602D4B1B681B68184707E02C4A116854
:100700002D4A914221D12A4B00221A60FFF728FF7F
:1007100062B600F0F3FE00F061F80400274A882377
:1007200080214900D150264A264B53602148036A54
:100730001B021B0AC02109060B43036200239360BE
:1007400007331360204E012511E0194A1A49116040
:100750001E4A013A002AFCD1154A00211160C0E767
:100760003378002B0BD1184B1B78002B0DD02000B9
:10077000A36898470028F3D0134B1D70F0E70020C2
:1007800000F046FB00F0D6FBFCE700F02BFF002852
:10079000EDD0012000F03CFB00F0CCFBFCE7C046B4
:1007A0000020000004200000180200200004004087
:1007B000FC7F002000ED00E035817307004400411C
:1007C00010E000E0E70300007700002048E80100A7
:1007D00010B5FFF759FC00F093FB10BD10B5054CA8
:1007E000054B2360FFF72EFD21682000FFF71CFD5D
:1007F000200010BD1C0200200050004170B5C0B0A8
:1008000005000C001600080001F09FF840000230BF
:100810006B46187003236A4653702378002B17D059
:100820007608012E16DD0122694602310134881C4A
:100830000B8001322378002B02D00100B242F5DB9D
:100840005200002369462800FFF782FD40B070BDCA
:100850000122F5E70122F3E7F0B583B00500046853
:100860000823FF331022E254B84B1A78B8480270BC
:100870005A78B84E32709978B74A11801188DF786B
:100880003F02394311801979B44A118011885F7988
:100890003F02394311809979B14A11801188DB797F
:1008A0001B020B43138082235B004022E254337807
:1008B00002781B021343AB4A934200D11EE125DCB0
:1008C00080225200934255D012DD81225200934281
:1008D00000D172E100DA6CE1FF32FF32934200D1C5
:1008E00007E1A14A93420CD12000FFF7D7FD3CE07D
:1008F000812B00D1BFE0822B00D1C4E0802B00D13E
:10090000B1E001212000FFF7B9FD2EE09022120195
:10091000934200D196E012DD944A934200D1B7E1B0
:1009200025DD934A934200D1B6E1924A9342E8D141
:10093000894B1B886B712000FFF7B0FD15E0D022BA
:10094000D20093421BD088221201934200D183E04F
:10095000A022D2009342D4D12000FFF79FFD7E4B0E
:10096000198889B22868FFF7B1FD03B0F0BD824A4B
:100970009342C6D101212000FFF780FDF5E7764BB9
:100980001B881B0A012B18D0734B1B881B0A022BD8
:1009900022D0714B1B881B0A032B4ED16E4B1B8838
:1009A000FF221340012B38D0002B24D0022B3CD047
:1009B00001212000FFF762FDD7E72868684B1B88FC
:1009C0009BB21222122B02D8654B1A8892B20023D6
:1009D0006A49FFF7BDFCC8E72868614B1B889BB2DA
:1009E0004322432B02D85E4B1A8892B200236449FB
:1009F000FFF7AEFCB9E7634B1B6801932868584BBF
:100A00001B889BB20422042B02D8554B1A8892B241
:100A1000002301A9FFF79CFCA7E7514B1A88D2B22B
:100A200028685949FFF7EAFE9FE74D4B1A88D2B272
:100A300028685649FFF7E2FE97E701212000FFF7FB
:100A40001DFD92E7444B1B882B712000FFF726FD0C
:100A50002000FFF741FD88E7291D286800230122B7
:100A6000FFF776FC81E74A4900230B8028680222C1
:100A7000FFF76EFC79E7464900230B8028680222C5
:100A8000FFF766FC71E7424B00221A80334B1A884D
:100A900050210A403F490A701A880F210A401A80E3
:100AA0001B889BB2032B1FD83A4B1B78002B10D00E
:100AB0002A4B1B8808335B01E418A3799B06DB0FE4
:100AC000334A13802868002302223149FFF740FC93
:100AD0004BE7224B1B8808335B01E418A379DB0644
:100AE000DB0F2B4A1380EDE701212000FFF7C6FC46
:100AF0003BE701212000FFF7C1FC36E7174B1A88BE
:100B000080210A4023490A701A880F210A401A805E
:100B1000114B1B889BB2002B46D1104B1B889BB2FC
:100B2000002B41D00D4B1B889BB2032B3CD8194B9B
:100B30001B78002B30D0094B1B8808335B01E3186E
:100B400020225A712000FFF7A9FC0EE79800002030
:100B50007900002078000020820000207C00002026
:100B60007E0000200203000001030000212000009D
:100B7000A121000021220000010B000074190000D7
:100B8000040000207019000088190000941900006A
:100B9000800000207A000020474B1B8808335B014F
:100BA000E31810225A71CDE701212000FFF766FCFF
:100BB000DBE62000FFF772FCD7E63F4B1A88802166
:100BC0000A403E490A701A880F210A401A803C4B9D
:100BD0001B889BB2002B56D1374B1B889BB2002B36
:100BE00051D0354B1B889BB2032B4CD8334B1B7811
:100BF000002B25D0304B1B8808335B01E3189B7911
:100C00009B0619D52C4A138808335B01E318113170
:100C10001971138808335B01E318DB795B060BD588
:100C2000138808335B01E3182031D9711388083326
:100C30005B01E31802221A712000FFF72FFC94E6F3
:100C40001D4B1B8808335B01E3189B79DB06F3D54A
:100C5000194A138808335B01E318102119711388AE
:100C600008335B01E318DB799B06E5D5138808336D
:100C70005B01E3181031D971138808335B01E31865
:100C800001221A71D8E701212000FFF7F7FB6CE67B
:100C90002000FFF703FC68E628680A4B1B889BB21C
:100CA0000822082B02D8074B1A8892B20023064963
:100CB000FFF74EFB59E6C0467C0000207A0000207A
:100CC000820000207E0000204800002000B583B094
:100CD0000190054B18680123012201A9FFF738FB99
:100CE000012003B000BDC0461C02002010B582B038
:100CF0006B46DC1D044B186801222100FFF77AFBCC
:100D0000207802B010BDC0461C02002010B5074874
:100D1000FFF742FA03000020002B06D0034B1A68AD
:100D20004823FF33D05CC007C00F10BD1C02002059
:100D300070B505000C00044B186801230A00290057
:100D4000FFF706FB200070BD1C02002070B50400F8
:100D50000D000848FFF720FA0023002801D11800F1
:100D600070BD044B18682A002100FFF743FB030005
:100D7000F5E7C0461C020020F8B505000E000B4840
:100D8000FFF70AFA00280DD0002E0CD03400074FD0
:100D9000220029003868FFF72DFB241A2D18002C9B
:100DA000F6D100E000263000F8BDC0461C0200204D
:100DB00010B50C00C368110020009847014B642255
:100DC0001A8010BD9400002030B50C4B18600C4BFD
:100DD0001B68984210D20B4A0B4B1D1C0B4C084948
:100DE0004308D3611580137DDB07FCD523689B0086
:100DF000C0180B688342F3D830BDC046880000207D
:100E0000380200200040004102A5FFFF44020020FC
:100E1000012805D0002802D1054B064A1A60704708
:100E2000034B054A1A60054B01221A70F7E7C046CA
:100E30008C0200202C1A0000101A000084000020F0
:100E4000F0B585B0214B1B78002B37D0042908D092
:100E500002290FD004784E001CD004AB98190B382F
:100E600004E004684E0004AB98190B3800250F22EB
:100E7000302708E00488F5E7373303702409013888
:100E80000135B54206D213002340092BF4D83B4369
:100E90000370F3E701AB30221A7048325A704A1CD3
:100EA00052000A2199549E190331F1700232084907
:100EB00008681900FFF77CFF05B0F0BD044B1B6804
:100EC0000A0001001800FFF773FFF5E78600002015
:100ED0008C02002080B500AF074B1B78002B09D196
:100EE00072B6EFF30883054A1360036883F308883A
:100EF00043681847BD4680BD850000209002002051
:100F00000A4B1B889BB2002B04D0084A1388013B74
:100F10009BB21380064B1B889BB2002B04D0044A63
:100F20001388013B9BB213807047C0469400002099
:100F30008C000020F0B5DE4657464E464546E0B5EB
:100F40008BB000AF0823F918D24B0A0031CB31C265
:100F500031CB31C211CB11C2CF4A93685B035B0F17
:100F60009B005958CD4B196093689BB2CC480360E5
:100F70004B43CC490B60138BDB05DB0FCA4A137064
:100F8000CA4B00221A60CA4B7A321A707AE2C94BF5
:100F90001B78002B50D1C64B1B78532B53D0522BB0
:100FA00000D1BFE04F2B00D1D4E0482B00D1D7E0D7
:100FB000572B00D1DAE06F2B00D1DDE0682B00D198
:100FC000EDE0772B00D102E1B74A1278002A02D176
:100FD000472B00D113E1542B00D124E14E2B00D13B
:100FE0002BE1562B00D137E1582B00D18EE1592B44
:100FF00000D19BE15A2B5AD1AF4B1A68AB4B1B68FF
:10100000002A00D1EEE11E0094469C44E0460023F5
:101010001D003078290000F007FB0500013643462B
:10102000B342F6D1A54B18680122A549FFF7C0FECF
:101030002B0007220F26DBE1A04B18680222A149F2
:10104000FFF7B6FEA7E7A04B1A68A04B1B689A42B1
:101050001ED99F4801680131016001339B4803603C
:10106000D31A954A126893424CD29A4A13608F4B16
:101070001868984E326800F057FC336893490A6844
:10108000D2180A6092490A68D2180A60924A13700C
:101090008E4A1368013B13608D4A1368013B13604D
:1010A0008D4B1B78844A11688B422ED3C046804BEF
:1010B0007A221A70804B00221A607E4B1B78002B1C
:1010C00000D0ABE1814A13680133136080490A689C
:1010D00001320A607C4A1268934200D3D2E123684D
:1010E0001B78FF2BEED0232B00D150E71A00303AAB
:1010F000092A00D999E170490A681201303B13436B
:101100000B60DFE7734B1A60B1E7C91A674B1868C9
:101110006A4B1B689B6998470028C7D06F4B6422B5
:101120001A80C3E7604B1B78002B07D06C4B5F4ADB
:1011300012689A4202D85D4B6A4A1A605E4B19687F
:101140005A4B18685D4B1B685B699847664B642275
:101150001A80ACE7554B1B68574A12681A70A6E70D
:10116000524B1B68544A12681A80A0E74F4B1B6809
:10117000514A12681A609AE74B4B1B78002B08D033
:101180004A4B1B68043B594A934202D8474B4A4A90
:101190001A60464B18680121FFF752FE87E7424B61
:1011A0001B78002B09D0414B1B68043B4F4A9342EC
:1011B00003D8414B00221A6004E03C4B1B681A889C
:1011C0003D4B1A6002213C48FFF73AFE6FE7364B71
:1011D0001B78002B09D0354B1B68043B434A9342D4
:1011E00003D8354B00221A6004E0304B1B681A68A4
:1011F000314B1A6004213048FFF722FE57E72E4B8F
:101200001868FFF767FE3A4B1B6883F3088862B6DD
:10121000384B1B78002B00D149E7284B1B681B6813
:101220000620984743E7234B01221A70234B186886
:1012300001322449FFF7BCFD39E71E4B1B78002B18
:1012400003D01C4B00221A7031E71C4B1868022295
:101250001C49FFF7ADFDF4E7184E0122264930681E
:10126000FFF7A6FD032225493068FFF7A1FD012203
:1012700023493068FFF79CFD0E2222493068FFF7B2
:1012800097FD2149124B196030681722FFF790FD36
:101290000DE7C046A41900000040004144020020B0
:1012A0003C02002038020020850000208802002037
:1012B0003402002086000020940200208C020020CE
:1012C000041A0000D81900002C020020400200205F
:1012D0003002002098020020280200208C0000200C
:1012E000FFFFFF1F0050002094000020FBFFFF1FA6
:1012F0009002002084000020DC190000D4190000B6
:10130000E0190000C4190000E4190000002A02D10D
:10131000674B186801E080208001FFF755FD654BA1
:10132000186803226449FFF743FDC0E6604B1B6861
:10133000002B0AD1614B1A68614B1A605D4B18682B
:1013400003226049FFF734FDB1E6002A05D080236F
:101350009B015D4A12689A4217D1554B1E68B60828
:10136000574B1B689C46554B1B689B46574A536816
:1013700080218B435360002EE0D01000544B9A46DE
:10138000544B9946544B98460FE080208001FFF75C
:101390001BFDE2E7002342460280027DD207FCD516
:1013A0009A0093449444F61AC8D053460380037DB0
:1013B000DB07FCD54B461B68032BEBD9002E0FD067
:1013C000002100235A4665466D5855500133414A65
:1013D000126892089342DED20431B342F2D1DAE7C6
:1013E0003300D8E700231D001CE6D055013A09D38D
:1013F000310019401B09080030300929F5DD37316B
:101400000800F2E72B4E082239003068FFF7D0FCC5
:10141000306803223149FFF7CBFC48E6254B1868BA
:1014200001322F49FFF7C4FC4CE61A00413A052A65
:1014300006D81F490A681201373B13430B6041E687
:101440001A00613A052A06D819490A681201573B61
:1014500013430B6036E62C2B05D0224A1370144B35
:1014600000221A602EE6124B144A196811600022FD
:101470001A6027E600231C4A13601C4A1C491160AD
:101480001C4A13600B4B1B681B6940211848984786
:101490000028EFD0184B64221A80134B1860134BAE
:1014A000134A1A60134B00221A60104C17E6C0460C
:1014B000940200208C020020FC1900008802002009
:1014C00090000020001A0000880000200040004129
:1014D00044A5FFFF4402002004A5FFFF081A0000F6
:1014E0000C1A0000340200202C02002030020020E0
:1014F00048020020400200208C00002010B51E4B46
:10150000D6215A5C012422435A54BB22985CC73925
:1015100088439854985C032108439854D720195C59
:1015200021431954995CC83801409954995C302082
:1015300001439954114A136A80210B431362104BE3
:10154000104A5A801A0053785BB2002BFBDBC4228E
:1015500092030D490D48FEF7D9FD00230C4A137084
:101560000C4A13700C4A13700C4A13700C4A137017
:101570000C4A137010BDC0460044004100040040F6
:10158000000C0040194000002AF60000001C004238
:101590009C020020260300209D020020A0020020C3
:1015A000270300202403002010B5C1B20248FEF733
:1015B000D9FD012010BDC046001C0042024B187E20
:1015C0004007C00F7047C046001C004210B5FFF72F
:1015D000F5FF0028FBD00248FEF7CAFD10BDC0464B
:1015E000001C004210B5FFF7E9FF0023002801D1DD
:1015F000180010BDFFF7EAFF233843424341F7E7E5
:1016000070B504000E1E06D045182078FFF7CCFFF9
:101610000134A542F9D1300070BD10B50400FFF7C8
:10162000D5FF2070012010BD0B0A43405B0009026A
:10163000024A985A484080B27047C046481A000093
:10164000F0B5DE4657464E464546E0B583B00190BC
:101650008B464C4B00221A70002918D14A4B01329C
:101660001A70484C0025FFF7B1FF2378002B1CD1DE
:10167000C0B2432803D071287CD01528F3D10123B0
:101680009946424B98461C003F4B9A4662E03F4BBE
:1016900019803D4B00221A700B005B06E1D00B0055
:1016A00080337F3293439B46DBE7364B1D70FFF759
:1016B0008DFFC0B2334B1B78002BDAD0314B0022A8
:1016C0001A70002057E02F4B00221A70002052E0C1
:1016D0000420FFF769FFFFF779FF2B4B00221A70F8
:1016E000012048E03D78013B238001372800FFF7C7
:1016F0005BFF00992800FFF797FF0090013E002E46
:1017000008D043461B88002BECD152461578002D9B
:10171000ECD0E7E70500000AC0B2FFF745FFE8B2EA
:10172000FFF742FFFFF752FF164B1B78002BCAD181
:10173000FF23184006280AD14B460133DBB29946F5
:1017400080235B429C46E344019B803301935B46CC
:10175000002BBDD00120FFF727FF4846FFF724FFED
:101760004B46D843C0B2FFF71FFF019F80260023DE
:101770000093C6E7002003B03CBC90469946A246C1
:10178000AB46F0BD24030020250300209E0200206C
:10179000F0B5D646474680B583B006000F1E2BD065
:1017A000002400230193194B9A46194B984608E0F0
:1017B000731C35701E00802F18D00134A4B2A742CC
:1017C0001ED0FFF703FFC5B253461B78002B15D17F
:1017D00001992800FFF728FF019043461B88002B42
:1017E000E6D10C4B1B78002BE7D0E1E7084A1288C2
:1017F000013A07490A80E0E7019101E001230193E2
:10180000019803B00CBC90469A46F0BD240300201A
:101810009E02002025030020F0B585B005003E4B58
:1018200000221A70002904D13C4B01321A70642640
:101830000AE03B4B1980394B00221A70F7E7002C65
:101840000ED1013E002E65D04320FFF7ADFE354C92
:10185000FFF7B4FE0028F2D1002CF2D0013CF7E7EC
:1018600001242D4E41E02C4B00221A7000204BE049
:10187000022103A8FFF78CFF80212800FFF788FFD3
:101880000190254B1B78002B08D0234B1B78002B95
:1018900036D0214B00221A70002035E0FFF796FE6B
:1018A0000700FFF793FE1C4B1A78012AEDD03F0288
:1018B000381880B2019B834203D103AB1B78A3424B
:1018C00003D01820FFF770FEDFE7E34303AA527846
:1018D000DBB29A42F5D10620FFF766FE0E4B1B786D
:1018E000002BD6D10134E4B28035FFF76FFE337898
:1018F000002BB8D1FF2318400128B9D0042805D007
:10190000064B00221A70012005B0F0BD0620FFF73B
:101910004BFEF5E70020F7E7240300202503002015
:101920009E02002000350C00002310B59A4200D121
:1019300010BDCC5CC4540133F8E703001218934285
:1019400000D1704719700133F9E70023C25C0133FD
:10195000002AFBD1581E7047F8B5C046F8BC08BC39
:101960009E467047F8B5C046F8BC08BC9E46704716
:1019700004030904120100020200004041234F0049
:10198000000201020001000041726475696E6F205F
:101990004C4C430041726475696E6F204D4B525A36
:1019A00065726F00080000001000000020000000B9
:1019B0004000000080000000000100000002000064
:1019C000000400005B41726475696E6F3A58595AA1
:1019D000505D0000322E30000A0D0000760000003D
:1019E0002000000020417072202036203230323139
:1019F0002031333A32303A31390A0D00580A0D009D
:101A0000590A0D005A000000230A0D003E00000094
:101A1000A9150000CD150000BD150000011600003D
:101A20001B1600004116000019180000CD0C000024
:101A3000ED0C00000D0D0000310D00004D0D0000FB
:101A4000310D0000790D00000000211042206330AC
:101A50008440A550C660E770088129914AA16BB106
:101A60008CC1ADD1CEE1EFF13112100273325222AE
:101A7000B5529442F772D662399318837BB35AA356
:101A8000BDD39CC3FFF3DEE362244334200401147E
:101A9000E664C774A44485546AA54BB528850995A6
:101AA000EEE5CFF5ACC58DD553367226111630064E
:101AB000D776F6669556B4465BB77AA719973887F6
:101AC000DFF7FEE79DD7BCC7C448E5588668A7780E
:101AD0004008611802282338CCC9EDD98EE9AFF946
:101AE000488969990AA92BB9F55AD44AB77A966AEE
:101AF000711A500A333A122AFDDBDCCBBFFB9EEB96
:101B0000799B588B3BBB1AABA66C877CE44CC55CBD
:101B1000222C033C600C411CAEED8FFDECCDCDDDE5
:101B20002AAD0BBD688D499D977EB66ED55EF44E8D
:101B3000133E322E511E700E9FFFBEEFDDDFFCCF35
:101B40001BBF3AAF599F788F8891A981CAB1EBA189
:101B50000CD12DC14EF16FE18010A100C230E32005
:101B60000450254046706760B9839893FBA3DAB3AD
:101B70003DC31CD37FE35EF3B1029012F322D23255
:101B80003542145277625672EAB5CBA5A89589857D
:101B90006EF54FE52CD50DC5E234C324A0148104A5
:101BA0006674476424540544DBA7FAB79987B8974D
:101BB0005FE77EF71DC73CD7D326F2369106B016F5
:101BC00057667676154634564CD96DC90EF92FE90D
:101BD000C899E9898AB9ABA9445865480678276845
:101BE000C018E1088238A3287DCB5CDB3FEB1EFBED
:101BF000F98BD89BBBAB9ABB754A545A376A167A95
:101C0000F10AD01AB32A923A2EFD0FED6CDD4DCDBC
:101C1000AABD8BADE89DC98D267C076C645C454CE4
:101C2000A23C832CE01CC10C1FEF3EFF5DCF7CDF8C
:101C30009BAFBABFD98FF89F176E367E554E745E34
:0C1C4000932EB23ED10EF01E00000000FA
:101C4C000114000009024300020100803209040063
:101C5C00000102020000052400100104240200050A
:101C6C00240600010524010001070583030800FF79
:101C7C0009040100020A000000070581024000006F
:101C8C00070502024000000000C20100000008002D
:081C9C00690000004100000096
:0400000300000645AE
:00000001FF
